{
  "_format": "hh-sol-artifact-1",
  "contractName": "Archmage",
  "sourceName": "contracts/Archmage.sol",
  "abi": [
    {
      "inputs": [
        {
          "internalType": "address",
          "name": "addrMaster",
          "type": "address"
        }
      ],
      "stateMutability": "nonpayable",
      "type": "constructor"
    },
    {
      "anonymous": false,
      "inputs": [
        {
          "indexed": true,
          "internalType": "address",
          "name": "owner",
          "type": "address"
        },
        {
          "indexed": true,
          "internalType": "address",
          "name": "approved",
          "type": "address"
        },
        {
          "indexed": true,
          "internalType": "uint256",
          "name": "tokenId",
          "type": "uint256"
        }
      ],
      "name": "Approval",
      "type": "event"
    },
    {
      "anonymous": false,
      "inputs": [
        {
          "indexed": true,
          "internalType": "address",
          "name": "owner",
          "type": "address"
        },
        {
          "indexed": true,
          "internalType": "address",
          "name": "operator",
          "type": "address"
        },
        {
          "indexed": false,
          "internalType": "bool",
          "name": "approved",
          "type": "bool"
        }
      ],
      "name": "ApprovalForAll",
      "type": "event"
    },
    {
      "anonymous": false,
      "inputs": [
        {
          "indexed": true,
          "internalType": "address",
          "name": "from",
          "type": "address"
        },
        {
          "indexed": true,
          "internalType": "address",
          "name": "to",
          "type": "address"
        },
        {
          "indexed": true,
          "internalType": "uint256",
          "name": "tokenId",
          "type": "uint256"
        }
      ],
      "name": "Transfer",
      "type": "event"
    },
    {
      "inputs": [
        {
          "internalType": "address",
          "name": "to",
          "type": "address"
        },
        {
          "internalType": "uint256",
          "name": "tokenId",
          "type": "uint256"
        }
      ],
      "name": "approve",
      "outputs": [],
      "stateMutability": "nonpayable",
      "type": "function"
    },
    {
      "inputs": [
        {
          "internalType": "address",
          "name": "owner",
          "type": "address"
        }
      ],
      "name": "balanceOf",
      "outputs": [
        {
          "internalType": "uint256",
          "name": "",
          "type": "uint256"
        }
      ],
      "stateMutability": "view",
      "type": "function"
    },
    {
      "inputs": [],
      "name": "burnToken",
      "outputs": [],
      "stateMutability": "nonpayable",
      "type": "function"
    },
    {
      "inputs": [
        {
          "internalType": "uint256",
          "name": "tokenId",
          "type": "uint256"
        }
      ],
      "name": "getApproved",
      "outputs": [
        {
          "internalType": "address",
          "name": "",
          "type": "address"
        }
      ],
      "stateMutability": "view",
      "type": "function"
    },
    {
      "inputs": [],
      "name": "getCurrentTokenId",
      "outputs": [
        {
          "internalType": "uint256",
          "name": "",
          "type": "uint256"
        }
      ],
      "stateMutability": "view",
      "type": "function"
    },
    {
      "inputs": [],
      "name": "getMintingPrice",
      "outputs": [
        {
          "internalType": "uint256",
          "name": "",
          "type": "uint256"
        }
      ],
      "stateMutability": "view",
      "type": "function"
    },
    {
      "inputs": [
        {
          "internalType": "uint256",
          "name": "tokenId",
          "type": "uint256"
        }
      ],
      "name": "getURI",
      "outputs": [
        {
          "internalType": "string",
          "name": "",
          "type": "string"
        }
      ],
      "stateMutability": "view",
      "type": "function"
    },
    {
      "inputs": [],
      "name": "getUpgradePrice",
      "outputs": [
        {
          "internalType": "uint256",
          "name": "",
          "type": "uint256"
        }
      ],
      "stateMutability": "view",
      "type": "function"
    },
    {
      "inputs": [
        {
          "internalType": "address",
          "name": "owner",
          "type": "address"
        },
        {
          "internalType": "address",
          "name": "operator",
          "type": "address"
        }
      ],
      "name": "isApprovedForAll",
      "outputs": [
        {
          "internalType": "bool",
          "name": "",
          "type": "bool"
        }
      ],
      "stateMutability": "view",
      "type": "function"
    },
    {
      "inputs": [],
      "name": "m_nBurnId",
      "outputs": [
        {
          "internalType": "uint256",
          "name": "",
          "type": "uint256"
        }
      ],
      "stateMutability": "view",
      "type": "function"
    },
    {
      "inputs": [
        {
          "internalType": "uint256",
          "name": "price",
          "type": "uint256"
        }
      ],
      "name": "mintToken",
      "outputs": [
        {
          "internalType": "uint256",
          "name": "",
          "type": "uint256"
        }
      ],
      "stateMutability": "nonpayable",
      "type": "function"
    },
    {
      "inputs": [],
      "name": "name",
      "outputs": [
        {
          "internalType": "string",
          "name": "",
          "type": "string"
        }
      ],
      "stateMutability": "view",
      "type": "function"
    },
    {
      "inputs": [
        {
          "internalType": "uint256",
          "name": "tokenId",
          "type": "uint256"
        }
      ],
      "name": "ownerOf",
      "outputs": [
        {
          "internalType": "address",
          "name": "",
          "type": "address"
        }
      ],
      "stateMutability": "view",
      "type": "function"
    },
    {
      "inputs": [
        {
          "internalType": "uint256",
          "name": "costs",
          "type": "uint256"
        }
      ],
      "name": "payWithCustomCoin",
      "outputs": [],
      "stateMutability": "nonpayable",
      "type": "function"
    },
    {
      "inputs": [],
      "name": "pop",
      "outputs": [],
      "stateMutability": "nonpayable",
      "type": "function"
    },
    {
      "inputs": [
        {
          "internalType": "address",
          "name": "from",
          "type": "address"
        },
        {
          "internalType": "address",
          "name": "to",
          "type": "address"
        },
        {
          "internalType": "uint256",
          "name": "tokenId",
          "type": "uint256"
        }
      ],
      "name": "safeTransferFrom",
      "outputs": [],
      "stateMutability": "nonpayable",
      "type": "function"
    },
    {
      "inputs": [
        {
          "internalType": "address",
          "name": "from",
          "type": "address"
        },
        {
          "internalType": "address",
          "name": "to",
          "type": "address"
        },
        {
          "internalType": "uint256",
          "name": "tokenId",
          "type": "uint256"
        },
        {
          "internalType": "bytes",
          "name": "_data",
          "type": "bytes"
        }
      ],
      "name": "safeTransferFrom",
      "outputs": [],
      "stateMutability": "nonpayable",
      "type": "function"
    },
    {
      "inputs": [
        {
          "internalType": "address",
          "name": "operator",
          "type": "address"
        },
        {
          "internalType": "bool",
          "name": "approved",
          "type": "bool"
        }
      ],
      "name": "setApprovalForAll",
      "outputs": [],
      "stateMutability": "nonpayable",
      "type": "function"
    },
    {
      "inputs": [
        {
          "internalType": "bytes4",
          "name": "interfaceId",
          "type": "bytes4"
        }
      ],
      "name": "supportsInterface",
      "outputs": [
        {
          "internalType": "bool",
          "name": "",
          "type": "bool"
        }
      ],
      "stateMutability": "view",
      "type": "function"
    },
    {
      "inputs": [],
      "name": "symbol",
      "outputs": [
        {
          "internalType": "string",
          "name": "",
          "type": "string"
        }
      ],
      "stateMutability": "view",
      "type": "function"
    },
    {
      "inputs": [
        {
          "internalType": "uint256",
          "name": "tokenId",
          "type": "uint256"
        }
      ],
      "name": "tokenURI",
      "outputs": [
        {
          "internalType": "string",
          "name": "",
          "type": "string"
        }
      ],
      "stateMutability": "view",
      "type": "function"
    },
    {
      "inputs": [
        {
          "internalType": "address",
          "name": "from",
          "type": "address"
        },
        {
          "internalType": "address",
          "name": "to",
          "type": "address"
        },
        {
          "internalType": "uint256",
          "name": "tokenId",
          "type": "uint256"
        }
      ],
      "name": "transferFrom",
      "outputs": [],
      "stateMutability": "nonpayable",
      "type": "function"
    }
  ],
  "bytecode": "0x652d79883d20006008556516bcc41e90006009556107d0600a5561010060405260506080818152906200225860a03980516200004491600e916020909101906200011d565b503480156200005257600080fd5b50604051620022a8380380620022a88339810160408190526200007591620001c3565b60405180604001604052806008815260200167417263686d61676560c01b81525060405180604001604052806008815260200167415243484d41474560c01b8152508160009080519060200190620000cf9291906200011d565b508051620000e59060019060208401906200011d565b5050600c8054336001600160a01b031991821617909155600b80549091166001600160a01b0393909316929092179091555062000230565b8280546200012b90620001f3565b90600052602060002090601f0160209004810192826200014f57600085556200019a565b82601f106200016a57805160ff19168380011785556200019a565b828001600101855582156200019a579182015b828111156200019a5782518255916020019190600101906200017d565b50620001a8929150620001ac565b5090565b5b80821115620001a85760008155600101620001ad565b600060208284031215620001d5578081fd5b81516001600160a01b0381168114620001ec578182fd5b9392505050565b6002810460018216806200020857607f821691505b602082108114156200022a57634e487b7160e01b600052602260045260246000fd5b50919050565b61201880620002406000396000f3fe608060405234801561001057600080fd5b50600436106101425760003560e01c806370a08231116100b8578063a4ece52c1161007c578063a4ece52c14610274578063b88d4fde1461027c578063c634d0321461028f578063c87b56dd146102a2578063e985e9c5146102b5578063faa0a264146102c857610142565b806370a082311461023657806377d247621461024957806395d89b41146102515780639b95119114610259578063a22cb4651461026157610142565b806323b872dd1161010a57806323b872dd146101cd57806334fec6ff146101e057806342842e0e146101f557806356189236146102085780636352211e1461021057806369c30eb61461022357610142565b806301ffc9a71461014757806306fdde0314610170578063081812fc14610185578063095ea7b3146101a55780631aa347dc146101ba575b600080fd5b61015a610155366004611775565b6102d0565b60405161016791906118c7565b60405180910390f35b610178610318565b60405161016791906118d2565b6101986101933660046117ad565b6103aa565b6040516101679190611838565b6101b86101b336600461172e565b6103f6565b005b6101786101c83660046117ad565b61048e565b6101b86101db3660046115f1565b610499565b6101e86104d1565b6040516101679190611e85565b6101b86102033660046115f1565b6104d7565b6101e86104f2565b61019861021e3660046117ad565b610503565b6101b86102313660046117ad565b610538565b6101e8610244366004611581565b610781565b6101e86107c5565b6101786107cb565b6101e86107da565b6101b861026f366004611701565b6107e0565b6101b86108ae565b6101b861028a366004611631565b610a52565b6101e861029d3660046117ad565b610a8b565b6101786102b03660046117ad565b610b76565b61015a6102c33660046115b9565b610c97565b6101b8610cc5565b60006001600160e01b031982166380ac58cd60e01b148061030157506001600160e01b03198216635b5e139f60e01b145b80610310575061031082610d06565b90505b919050565b60606000805461032790611efd565b80601f016020809104026020016040519081016040528092919081815260200182805461035390611efd565b80156103a05780601f10610375576101008083540402835291602001916103a0565b820191906000526020600020905b81548152906001019060200180831161038357829003601f168201915b5050505050905090565b60006103b582610d1f565b6103da5760405162461bcd60e51b81526004016103d190611c23565b60405180910390fd5b506000908152600460205260409020546001600160a01b031690565b600061040182610503565b9050806001600160a01b0316836001600160a01b031614156104355760405162461bcd60e51b81526004016103d190611d07565b806001600160a01b0316610447610d3c565b6001600160a01b031614806104635750610463816102c3610d3c565b61047f5760405162461bcd60e51b81526004016103d190611a5f565b6104898383610d40565b505050565b606061031082610b76565b6104aa6104a4610d3c565b82610dae565b6104c65760405162461bcd60e51b81526004016103d190611d9d565b610489838383610e2b565b60095490565b61048983838360405180602001604052806000815250610a52565b60006104fe6007610f58565b905090565b6000818152600260205260408120546001600160a01b0316806103105760405162461bcd60e51b81526004016103d190611b06565b600b546040805163280aada760e01b815290516000926001600160a01b03169163280aada7916004808301926020929190829003018186803b15801561057d57600080fd5b505afa158015610591573d6000803e3d6000fd5b505050506040513d601f19601f820116820180604052508101906105b5919061159d565b90506000816001600160a01b031663dd62ed3e33306040518363ffffffff1660e01b81526004016105e792919061184c565b60206040518083038186803b1580156105ff57600080fd5b505afa158015610613573d6000803e3d6000fd5b505050506040513d601f19601f8201168201806040525081019061063791906117c5565b9050828110156106595760405162461bcd60e51b81526004016103d190611e3e565b6040516370a0823160e01b815283906001600160a01b038416906370a0823190610687903390600401611838565b60206040518083038186803b15801561069f57600080fd5b505afa1580156106b3573d6000803e3d6000fd5b505050506040513d601f19601f820116820180604052508101906106d791906117c5565b10156106f55760405162461bcd60e51b81526004016103d190611dee565b600c546040516323b872dd60e01b81526001600160a01b03808516926323b872dd9261072992339216908890600401611866565b602060405180830381600087803b15801561074357600080fd5b505af1158015610757573d6000803e3d6000fd5b505050506040513d601f19601f8201168201806040525081019061077b9190611759565b50505050565b60006001600160a01b0382166107a95760405162461bcd60e51b81526004016103d190611abc565b506001600160a01b031660009081526003602052604090205490565b60085490565b60606001805461032790611efd565b600d5481565b6107e8610d3c565b6001600160a01b0316826001600160a01b031614156108195760405162461bcd60e51b81526004016103d1906119dc565b8060056000610826610d3c565b6001600160a01b03908116825260208083019390935260409182016000908120918716808252919093529120805460ff19169215159290921790915561086a610d3c565b6001600160a01b03167f17307eab39ab6107e8899845ad3d59bd9653f200f220920489ca2b5937696c31836040516108a291906118c7565b60405180910390a35050565b336000908152600f602090815260408083208054825181850281018501909352808352919290919083018282801561090557602002820191906000526020600020905b8154815260200190600101908083116108f1575b505050505090506000815111156109525780600182516109259190611eba565b8151811061094357634e487b7160e01b600052603260045260246000fd5b6020026020010151600d819055505b6000600182516109629190611eba565b67ffffffffffffffff81111561098857634e487b7160e01b600052604160045260246000fd5b6040519080825280602002602001820160405280156109b1578160200160208202803683370190505b50905060005b600183516109c59190611eba565b811015610a31578281815181106109ec57634e487b7160e01b600052603260045260246000fd5b6020026020010151828281518110610a1457634e487b7160e01b600052603260045260246000fd5b602090810291909101015280610a2981611f38565b9150506109b7565b50336000908152600f60209081526040909120825161048992840190611476565b610a63610a5d610d3c565b83610dae565b610a7f5760405162461bcd60e51b81526004016103d190611d9d565b61077b84848484610f5c565b6000600a54610a9a6007610f58565b10610ab75760405162461bcd60e51b81526004016103d190611d48565b610ac16007610f8f565b6000610acd6007610f58565b9050610ad93382610f98565b610b6d81600e8054610aea90611efd565b80601f0160208091040260200160405190810160405280929190818152602001828054610b1690611efd565b8015610b635780601f10610b3857610100808354040283529160200191610b63565b820191906000526020600020905b815481529060010190602001808311610b4657829003601f168201915b5050505050611077565b61031083610538565b6060610b8182610d1f565b610b9d5760405162461bcd60e51b81526004016103d190611bd2565b60008281526006602052604081208054610bb690611efd565b80601f0160208091040260200160405190810160405280929190818152602001828054610be290611efd565b8015610c2f5780601f10610c0457610100808354040283529160200191610c2f565b820191906000526020600020905b815481529060010190602001808311610c1257829003601f168201915b505050505090506000610c406110bb565b9050805160001415610c5457509050610313565b815115610c86578082604051602001610c6e929190611809565b60405160208183030381529060405292505050610313565b610c8f846110cd565b949350505050565b6001600160a01b03918216600090815260056020908152604080832093909416825291909152205460ff1690565b336000908152600f6020526040902054610cf15760405162461bcd60e51b81526004016103d1906118e5565b610cf96108ae565b610d04600d54611150565b565b6001600160e01b031981166301ffc9a760e01b14919050565b6000908152600260205260409020546001600160a01b0316151590565b3390565b600081815260046020526040902080546001600160a01b0319166001600160a01b0384169081179091558190610d7582610503565b6001600160a01b03167f8c5be1e5ebec7d5bd14f71427d1e84f3dd0314c0f7b2291e5b200ac8c7c3b92560405160405180910390a45050565b6000610db982610d1f565b610dd55760405162461bcd60e51b81526004016103d190611a13565b6000610de083610503565b9050806001600160a01b0316846001600160a01b03161480610e1b5750836001600160a01b0316610e10846103aa565b6001600160a01b0316145b80610c8f5750610c8f8185610c97565b826001600160a01b0316610e3e82610503565b6001600160a01b031614610e645760405162461bcd60e51b81526004016103d190611c6f565b6001600160a01b038216610e8a5760405162461bcd60e51b81526004016103d190611998565b610e95838383610489565b610ea0600082610d40565b6001600160a01b0383166000908152600360205260408120805460019290610ec9908490611eba565b90915550506001600160a01b0382166000908152600360205260408120805460019290610ef7908490611e8e565b909155505060008181526002602052604080822080546001600160a01b0319166001600160a01b0386811691821790925591518493918716917fddf252ad1be2c89b69c2b068fc378daa952ba7f163c4a11628f55a4df523b3ef91a4505050565b5490565b610f67848484610e2b565b610f7384848484611193565b61077b5760405162461bcd60e51b81526004016103d19061190f565b80546001019055565b6001600160a01b038216610fbe5760405162461bcd60e51b81526004016103d190611b9d565b610fc781610d1f565b15610fe45760405162461bcd60e51b81526004016103d190611961565b610ff060008383610489565b6001600160a01b0382166000908152600360205260408120805460019290611019908490611e8e565b909155505060008181526002602052604080822080546001600160a01b0319166001600160a01b03861690811790915590518392907fddf252ad1be2c89b69c2b068fc378daa952ba7f163c4a11628f55a4df523b3ef908290a45050565b61108082610d1f565b61109c5760405162461bcd60e51b81526004016103d190611b4f565b60008281526006602090815260409091208251610489928401906114c1565b60408051602081019091526000815290565b60606110d882610d1f565b6110f45760405162461bcd60e51b81526004016103d190611cb8565b60006110fe6110bb565b9050600081511161111e5760405180602001604052806000815250611149565b80611128846112ae565b604051602001611139929190611809565b6040516020818303038152906040525b9392505050565b611159816113c9565b6000818152600660205260409020805461117290611efd565b15905061119057600081815260066020526040812061119091611534565b50565b60006111a7846001600160a01b0316611470565b156112a357836001600160a01b031663150b7a026111c3610d3c565b8786866040518563ffffffff1660e01b81526004016111e5949392919061188a565b602060405180830381600087803b1580156111ff57600080fd5b505af192505050801561122f575060408051601f3d908101601f1916820190925261122c91810190611791565b60015b611289573d80801561125d576040519150601f19603f3d011682016040523d82523d6000602084013e611262565b606091505b5080516112815760405162461bcd60e51b81526004016103d19061190f565b805181602001fd5b6001600160e01b031916630a85bd0160e11b149050610c8f565b506001949350505050565b6060816112d357506040805180820190915260018152600360fc1b6020820152610313565b8160005b81156112fd57806112e781611f38565b91506112f69050600a83611ea6565b91506112d7565b60008167ffffffffffffffff81111561132657634e487b7160e01b600052604160045260246000fd5b6040519080825280601f01601f191660200182016040528015611350576020820181803683370190505b5090505b8415610c8f57611365600183611eba565b9150611372600a86611f53565b61137d906030611e8e565b60f81b8183815181106113a057634e487b7160e01b600052603260045260246000fd5b60200101906001600160f81b031916908160001a9053506113c2600a86611ea6565b9450611354565b60006113d482610503565b90506113e281600084610489565b6113ed600083610d40565b6001600160a01b0381166000908152600360205260408120805460019290611416908490611eba565b909155505060008281526002602052604080822080546001600160a01b0319169055518391906001600160a01b038416907fddf252ad1be2c89b69c2b068fc378daa952ba7f163c4a11628f55a4df523b3ef908390a45050565b3b151590565b8280548282559060005260206000209081019282156114b1579160200282015b828111156114b1578251825591602001919060010190611496565b506114bd92915061156c565b5090565b8280546114cd90611efd565b90600052602060002090601f0160209004810192826114ef57600085556114b1565b82601f1061150857805160ff19168380011785556114b1565b828001600101855582156114b157918201828111156114b1578251825591602001919060010190611496565b50805461154090611efd565b6000825580601f106115525750611190565b601f01602090049060005260206000209081019061119091905b5b808211156114bd576000815560010161156d565b600060208284031215611592578081fd5b813561114981611fa9565b6000602082840312156115ae578081fd5b815161114981611fa9565b600080604083850312156115cb578081fd5b82356115d681611fa9565b915060208301356115e681611fa9565b809150509250929050565b600080600060608486031215611605578081fd5b833561161081611fa9565b9250602084013561162081611fa9565b929592945050506040919091013590565b60008060008060808587031215611646578081fd5b843561165181611fa9565b935060208581013561166281611fa9565b935060408601359250606086013567ffffffffffffffff80821115611685578384fd5b818801915088601f830112611698578384fd5b8135818111156116aa576116aa611f93565b604051601f8201601f19168101850183811182821017156116cd576116cd611f93565b60405281815283820185018b10156116e3578586fd5b81858501868301379081019093019390935250939692955090935050565b60008060408385031215611713578182fd5b823561171e81611fa9565b915060208301356115e681611fbe565b60008060408385031215611740578182fd5b823561174b81611fa9565b946020939093013593505050565b60006020828403121561176a578081fd5b815161114981611fbe565b600060208284031215611786578081fd5b813561114981611fcc565b6000602082840312156117a2578081fd5b815161114981611fcc565b6000602082840312156117be578081fd5b5035919050565b6000602082840312156117d6578081fd5b5051919050565b600081518084526117f5816020860160208601611ed1565b601f01601f19169290920160200192915050565b6000835161181b818460208801611ed1565b83519083019061182f818360208801611ed1565b01949350505050565b6001600160a01b0391909116815260200190565b6001600160a01b0392831681529116602082015260400190565b6001600160a01b039384168152919092166020820152604081019190915260600190565b6001600160a01b03858116825284166020820152604081018390526080606082018190526000906118bd908301846117dd565b9695505050505050565b901515815260200190565b60006020825261114960208301846117dd565b60208082526010908201526f3130b630b731b29034b9903d32b9379760811b604082015260600190565b60208082526032908201527f4552433732313a207472616e7366657220746f206e6f6e20455243373231526560408201527131b2b4bb32b91034b6b83632b6b2b73a32b960711b606082015260800190565b6020808252601c908201527f4552433732313a20746f6b656e20616c7265616479206d696e74656400000000604082015260600190565b60208082526024908201527f4552433732313a207472616e7366657220746f20746865207a65726f206164646040820152637265737360e01b606082015260800190565b60208082526019908201527f4552433732313a20617070726f766520746f2063616c6c657200000000000000604082015260600190565b6020808252602c908201527f4552433732313a206f70657261746f7220717565727920666f72206e6f6e657860408201526b34b9ba32b73a103a37b5b2b760a11b606082015260800190565b60208082526038908201527f4552433732313a20617070726f76652063616c6c6572206973206e6f74206f7760408201527f6e6572206e6f7220617070726f76656420666f7220616c6c0000000000000000606082015260800190565b6020808252602a908201527f4552433732313a2062616c616e636520717565727920666f7220746865207a65604082015269726f206164647265737360b01b606082015260800190565b60208082526029908201527f4552433732313a206f776e657220717565727920666f72206e6f6e657869737460408201526832b73a103a37b5b2b760b91b606082015260800190565b6020808252602e908201527f45524337323155524953746f726167653a2055524920736574206f66206e6f6e60408201526d32bc34b9ba32b73a103a37b5b2b760911b606082015260800190565b6020808252818101527f4552433732313a206d696e7420746f20746865207a65726f2061646472657373604082015260600190565b60208082526031908201527f45524337323155524953746f726167653a2055524920717565727920666f72206040820152703737b732bc34b9ba32b73a103a37b5b2b760791b606082015260800190565b6020808252602c908201527f4552433732313a20617070726f76656420717565727920666f72206e6f6e657860408201526b34b9ba32b73a103a37b5b2b760a11b606082015260800190565b60208082526029908201527f4552433732313a207472616e73666572206f6620746f6b656e2074686174206960408201526839903737ba1037bbb760b91b606082015260800190565b6020808252602f908201527f4552433732314d657461646174613a2055524920717565727920666f72206e6f60408201526e3732bc34b9ba32b73a103a37b5b2b760891b606082015260800190565b60208082526021908201527f4552433732313a20617070726f76616c20746f2063757272656e74206f776e656040820152603960f91b606082015260800190565b60208082526035908201527f546865206e756d626572206f662074686973204e465420746f6b656e73206f7660408201527432b9333637bbb9903a37ba30b61039bab838363c9760591b606082015260800190565b60208082526031908201527f4552433732313a207472616e736665722063616c6c6572206973206e6f74206f6040820152701ddb995c881b9bdc88185c1c1c9bdd9959607a1b606082015260800190565b60208082526030908201527f62616c616e636520697320746f6f20736d616c6c2c20796f752063616e27742060408201526f3830bc903337b91036b4b73a34b7339760811b606082015260800190565b60208082526027908201527f636f73742069732074686520736d616c6c6572207468616e20616c6c6f77656460408201526608185b5bdd5b9d60ca1b606082015260800190565b90815260200190565b60008219821115611ea157611ea1611f67565b500190565b600082611eb557611eb5611f7d565b500490565b600082821015611ecc57611ecc611f67565b500390565b60005b83811015611eec578181015183820152602001611ed4565b8381111561077b5750506000910152565b600281046001821680611f1157607f821691505b60208210811415611f3257634e487b7160e01b600052602260045260246000fd5b50919050565b6000600019821415611f4c57611f4c611f67565b5060010190565b600082611f6257611f62611f7d565b500690565b634e487b7160e01b600052601160045260246000fd5b634e487b7160e01b600052601260045260246000fd5b634e487b7160e01b600052604160045260246000fd5b6001600160a01b038116811461119057600080fd5b801515811461119057600080fd5b6001600160e01b03198116811461119057600080fdfea26469706673582212207042896a1fb4ecea71784bdcf28d4c73c8aba57d6e166c9debaee0d2ee246cec64736f6c6343000800003368747470733a2f2f676174657761792e70696e6174612e636c6f75642f697066732f516d65336e3856326a5474706459655834674b624b5644567237766d6a664a4376416d41673248526f374b4a6e64",
  "linkReferences": {},
  "deployedLinkReferences": {}
}