{
  "_format": "hh-sol-artifact-1",
  "contractName": "NFTMarket",
  "sourceName": "contracts/NFTMarket.sol",
  "abi": [
    {
      "inputs": [],
      "stateMutability": "nonpayable",
      "type": "constructor"
    },
    {
      "anonymous": false,
      "inputs": [
        {
          "indexed": true,
          "internalType": "uint256",
          "name": "itemId",
          "type": "uint256"
        },
        {
          "indexed": true,
          "internalType": "address",
          "name": "nftContract",
          "type": "address"
        },
        {
          "indexed": true,
          "internalType": "uint256",
          "name": "tokenId",
          "type": "uint256"
        },
        {
          "indexed": false,
          "internalType": "uint256",
          "name": "collectionId",
          "type": "uint256"
        },
        {
          "indexed": false,
          "internalType": "address",
          "name": "seller",
          "type": "address"
        },
        {
          "indexed": false,
          "internalType": "address",
          "name": "owner",
          "type": "address"
        },
        {
          "indexed": false,
          "internalType": "uint256",
          "name": "price",
          "type": "uint256"
        },
        {
          "indexed": false,
          "internalType": "bool",
          "name": "sold",
          "type": "bool"
        }
      ],
      "name": "MarketItemCreated",
      "type": "event"
    },
    {
      "anonymous": false,
      "inputs": [
        {
          "indexed": false,
          "internalType": "address",
          "name": "player",
          "type": "address"
        }
      ],
      "name": "WhiteListAdded",
      "type": "event"
    },
    {
      "inputs": [
        {
          "internalType": "address[]",
          "name": "playerAddresses",
          "type": "address[]"
        }
      ],
      "name": "addCollectionToWhitelist",
      "outputs": [],
      "stateMutability": "nonpayable",
      "type": "function"
    },
    {
      "inputs": [
        {
          "internalType": "address",
          "name": "nftContract",
          "type": "address"
        },
        {
          "internalType": "uint256",
          "name": "itemId",
          "type": "uint256"
        }
      ],
      "name": "buyMarketSale",
      "outputs": [],
      "stateMutability": "nonpayable",
      "type": "function"
    },
    {
      "inputs": [
        {
          "internalType": "uint256",
          "name": "itemId",
          "type": "uint256"
        }
      ],
      "name": "buyingFee",
      "outputs": [
        {
          "internalType": "uint256",
          "name": "",
          "type": "uint256"
        }
      ],
      "stateMutability": "view",
      "type": "function"
    },
    {
      "inputs": [
        {
          "internalType": "uint256",
          "name": "itemId",
          "type": "uint256"
        }
      ],
      "name": "buyingPrice",
      "outputs": [
        {
          "internalType": "uint256",
          "name": "",
          "type": "uint256"
        }
      ],
      "stateMutability": "view",
      "type": "function"
    },
    {
      "inputs": [
        {
          "internalType": "address",
          "name": "nftContract",
          "type": "address"
        },
        {
          "internalType": "uint256",
          "name": "tokenId",
          "type": "uint256"
        },
        {
          "internalType": "uint256",
          "name": "collectionId",
          "type": "uint256"
        },
        {
          "internalType": "uint256",
          "name": "price",
          "type": "uint256"
        }
      ],
      "name": "createMarketItem",
      "outputs": [],
      "stateMutability": "nonpayable",
      "type": "function"
    },
    {
      "inputs": [
        {
          "internalType": "address",
          "name": "nftContract",
          "type": "address"
        },
        {
          "internalType": "uint256",
          "name": "itemId",
          "type": "uint256"
        },
        {
          "internalType": "uint256",
          "name": "price",
          "type": "uint256"
        }
      ],
      "name": "createMarketSale",
      "outputs": [],
      "stateMutability": "nonpayable",
      "type": "function"
    },
    {
      "inputs": [
        {
          "internalType": "uint256",
          "name": "collectionId",
          "type": "uint256"
        }
      ],
      "name": "fetchItemsCreated",
      "outputs": [
        {
          "components": [
            {
              "internalType": "uint256",
              "name": "itemId",
              "type": "uint256"
            },
            {
              "internalType": "address",
              "name": "nftContract",
              "type": "address"
            },
            {
              "internalType": "uint256",
              "name": "tokenId",
              "type": "uint256"
            },
            {
              "internalType": "uint256",
              "name": "collectionId",
              "type": "uint256"
            },
            {
              "internalType": "address payable",
              "name": "seller",
              "type": "address"
            },
            {
              "internalType": "address payable",
              "name": "owner",
              "type": "address"
            },
            {
              "internalType": "uint256",
              "name": "price",
              "type": "uint256"
            },
            {
              "internalType": "bool",
              "name": "sold",
              "type": "bool"
            }
          ],
          "internalType": "struct NFTMarket.MarketItem[]",
          "name": "",
          "type": "tuple[]"
        }
      ],
      "stateMutability": "view",
      "type": "function"
    },
    {
      "inputs": [
        {
          "internalType": "uint256",
          "name": "collectionId",
          "type": "uint256"
        }
      ],
      "name": "fetchMarketItems",
      "outputs": [
        {
          "components": [
            {
              "internalType": "uint256",
              "name": "itemId",
              "type": "uint256"
            },
            {
              "internalType": "address",
              "name": "nftContract",
              "type": "address"
            },
            {
              "internalType": "uint256",
              "name": "tokenId",
              "type": "uint256"
            },
            {
              "internalType": "uint256",
              "name": "collectionId",
              "type": "uint256"
            },
            {
              "internalType": "address payable",
              "name": "seller",
              "type": "address"
            },
            {
              "internalType": "address payable",
              "name": "owner",
              "type": "address"
            },
            {
              "internalType": "uint256",
              "name": "price",
              "type": "uint256"
            },
            {
              "internalType": "bool",
              "name": "sold",
              "type": "bool"
            }
          ],
          "internalType": "struct NFTMarket.MarketItem[]",
          "name": "",
          "type": "tuple[]"
        }
      ],
      "stateMutability": "view",
      "type": "function"
    },
    {
      "inputs": [
        {
          "internalType": "uint256",
          "name": "collectionId",
          "type": "uint256"
        }
      ],
      "name": "fetchMyNFTS",
      "outputs": [
        {
          "components": [
            {
              "internalType": "uint256",
              "name": "itemId",
              "type": "uint256"
            },
            {
              "internalType": "address",
              "name": "nftContract",
              "type": "address"
            },
            {
              "internalType": "uint256",
              "name": "tokenId",
              "type": "uint256"
            },
            {
              "internalType": "uint256",
              "name": "collectionId",
              "type": "uint256"
            },
            {
              "internalType": "address payable",
              "name": "seller",
              "type": "address"
            },
            {
              "internalType": "address payable",
              "name": "owner",
              "type": "address"
            },
            {
              "internalType": "uint256",
              "name": "price",
              "type": "uint256"
            },
            {
              "internalType": "bool",
              "name": "sold",
              "type": "bool"
            }
          ],
          "internalType": "struct NFTMarket.MarketItem[]",
          "name": "",
          "type": "tuple[]"
        }
      ],
      "stateMutability": "view",
      "type": "function"
    },
    {
      "inputs": [
        {
          "internalType": "uint256",
          "name": "collectionId",
          "type": "uint256"
        }
      ],
      "name": "getCreatedItemCountForCollection",
      "outputs": [
        {
          "internalType": "uint256",
          "name": "",
          "type": "uint256"
        }
      ],
      "stateMutability": "view",
      "type": "function"
    },
    {
      "inputs": [],
      "name": "getCurrentItemId",
      "outputs": [
        {
          "internalType": "uint256",
          "name": "",
          "type": "uint256"
        }
      ],
      "stateMutability": "view",
      "type": "function"
    },
    {
      "inputs": [
        {
          "internalType": "uint256",
          "name": "collectionId",
          "type": "uint256"
        }
      ],
      "name": "getItemCountOwnedByAccount",
      "outputs": [
        {
          "internalType": "uint256",
          "name": "",
          "type": "uint256"
        }
      ],
      "stateMutability": "view",
      "type": "function"
    },
    {
      "inputs": [],
      "name": "getListingPrice",
      "outputs": [
        {
          "internalType": "uint256",
          "name": "",
          "type": "uint256"
        }
      ],
      "stateMutability": "view",
      "type": "function"
    },
    {
      "inputs": [
        {
          "internalType": "address",
          "name": "player",
          "type": "address"
        },
        {
          "internalType": "uint256",
          "name": "collectionId",
          "type": "uint256"
        }
      ],
      "name": "isAllowed",
      "outputs": [
        {
          "internalType": "bool",
          "name": "",
          "type": "bool"
        }
      ],
      "stateMutability": "view",
      "type": "function"
    },
    {
      "inputs": [
        {
          "internalType": "uint256",
          "name": "tokenId",
          "type": "uint256"
        }
      ],
      "name": "isCreatedMarketItem",
      "outputs": [
        {
          "internalType": "bool",
          "name": "",
          "type": "bool"
        }
      ],
      "stateMutability": "view",
      "type": "function"
    },
    {
      "inputs": [],
      "name": "isSettedCollectionId",
      "outputs": [
        {
          "internalType": "bool",
          "name": "",
          "type": "bool"
        }
      ],
      "stateMutability": "view",
      "type": "function"
    },
    {
      "inputs": [
        {
          "internalType": "address",
          "name": "nftContract",
          "type": "address"
        },
        {
          "internalType": "uint256",
          "name": "itemId",
          "type": "uint256"
        }
      ],
      "name": "payBuyingFeeToAdmin",
      "outputs": [],
      "stateMutability": "nonpayable",
      "type": "function"
    },
    {
      "inputs": [
        {
          "internalType": "address",
          "name": "nftContract",
          "type": "address"
        },
        {
          "internalType": "address",
          "name": "to",
          "type": "address"
        },
        {
          "internalType": "uint256",
          "name": "costs",
          "type": "uint256"
        }
      ],
      "name": "payWithADMC",
      "outputs": [],
      "stateMutability": "nonpayable",
      "type": "function"
    },
    {
      "inputs": [
        {
          "internalType": "uint256",
          "name": "_collectionId",
          "type": "uint256"
        }
      ],
      "name": "setCollectionForWhitelist",
      "outputs": [],
      "stateMutability": "nonpayable",
      "type": "function"
    },
    {
      "inputs": [
        {
          "internalType": "uint256",
          "name": "price",
          "type": "uint256"
        }
      ],
      "name": "setListingPrice",
      "outputs": [],
      "stateMutability": "nonpayable",
      "type": "function"
    }
  ],
  "bytecode": "0x6080604052655af3107a400060075534801561001a57600080fd5b506001600055600380546001600160a01b03191633179055612073806100416000396000f3fe608060405234801561001057600080fd5b506004361061012c5760003560e01c80637c726b69116100ad578063bd3ecad111610071578063bd3ecad11461026a578063d10063d31461027d578063f7395d3414610285578063f8350ed014610298578063fda59f20146102ab5761012c565b80637c726b69146101fe57806384b7a46914610211578063925aca7e14610224578063aaa464b514610237578063bab59523146102575761012c565b8063315b3f5f116100f4578063315b3f5f146101aa5780634275fb2c146101bd578063442970e2146101d0578063599ba234146101e357806368eb4949146101f65761012c565b80630442a92114610131578063083aeb9c1461014657806312e855851461016f57806321cf91ac146101775780633155cd091461018a575b600080fd5b61014461013f3660046118a8565b6102be565b005b610159610154366004611acd565b61031f565b6040516101669190611f0c565b60405180910390f35b610159610351565b6101446101853660046118d3565b610357565b61019d610198366004611acd565b61049d565b6040516101669190611b55565b61019d6101b8366004611acd565b610683565b6101596101cb366004611acd565b6108e7565b61019d6101de366004611acd565b610904565b6101446101f1366004611907565b610b5e565b610159610f76565b61014461020c366004611acd565b610f87565b61014461021f366004611868565b610ff2565b610144610232366004611941565b611234565b61024a610245366004611acd565b611426565b6040516101669190611bfe565b6101446102653660046118a8565b611446565b610159610278366004611acd565b6116b3565b61024a6116c5565b610159610293366004611acd565b6116cd565b61024a6102a63660046118a8565b6116f9565b6101446102b9366004611acd565b61172c565b600260005414156102ea5760405162461bcd60e51b81526004016102e190611e3b565b60405180910390fd5b600260009081556102fa8261031f565b6003549091506103159084906001600160a01b031683610ff2565b5050600160005550565b60008181526008602052604081206006015481600261033f606484611f88565b6103499190611f88565b949350505050565b60075490565b6002600054141561037a5760405162461bcd60e51b81526004016102e190611e3b565b600260009081558281526008602052604090206006810154600390910154828214156103b85760405162461bcd60e51b81526004016102e190611d07565b606483116103d85760405162461bcd60e51b81526004016102e190611cc1565b60008481526008602052604090206005810180546001600160a01b031990811690915560048201805490911633179055600701805460ff1916905561042183633b9aca00611fa8565b60008581526008602052604090206006015561043d6002611731565b336000908152600a602090815260408083208484529091528120805460019290610468908490611fc7565b90915550506000818152600b6020526040812080546001929061048c908490611f70565b909155505060016000555050505050565b606060006104ab6001611758565b6000848152600b602052604081205491925090819067ffffffffffffffff8111156104e657634e487b7160e01b600052604160045260246000fd5b60405190808252806020026020018201604052801561051f57816020015b61050c611765565b8152602001906001900390816105045790505b50905060005b8381101561067a57600060088161053d846001611f70565b81526020810191909152604001600020600501546001600160a01b031614801561058657508560086000610572846001611f70565b815260200190815260200160002060030154145b1561066857600060088161059b846001611f70565b8152602080820192909252604090810160009081205480825260088452908290208251610100810184528154815260018201546001600160a01b039081169582019590955260028201549381019390935260038101546060840152600481015484166080840152600581015490931660a0830152600683015460c0830152600783015460ff16151560e0830152855190935085908790811061064d57634e487b7160e01b600052603260045260246000fd5b6020908102919091010152610663600186611f70565b945050505b8061067281611fde565b915050610525565b50949350505050565b606060006106916001611758565b905060008060005b8381101561071f5733600860006106b1846001611f70565b81526020810191909152604001600020600501546001600160a01b03161480156106fa575085600860006106e6846001611f70565b815260200190815260200160002060030154145b1561070d5761070a600184611f70565b92505b8061071781611fde565b915050610699565b5060008267ffffffffffffffff81111561074957634e487b7160e01b600052604160045260246000fd5b60405190808252806020026020018201604052801561078257816020015b61076f611765565b8152602001906001900390816107675790505b50905060005b848110156108dd5733600860006107a0846001611f70565b81526020810191909152604001600020600501546001600160a01b03161480156107e9575086600860006107d5846001611f70565b815260200190815260200160002060030154145b156108cb5760006008816107fe846001611f70565b8152602080820192909252604090810160009081205480825260088452908290208251610100810184528154815260018201546001600160a01b039081169582019590955260028201549381019390935260038101546060840152600481015484166080840152600581015490931660a0830152600683015460c0830152600783015460ff16151560e083015285519093508590879081106108b057634e487b7160e01b600052603260045260246000fd5b60209081029190910101526108c6600186611f70565b945050505b806108d581611fde565b915050610788565b5095945050505050565b336000908152600a60209081526040808320938352929052205490565b606060006109126001611758565b905060008060005b838110156109a0573360086000610932846001611f70565b81526020810191909152604001600020600401546001600160a01b031614801561097b57508560086000610967846001611f70565b815260200190815260200160002060030154145b1561098e5761098b600184611f70565b92505b8061099881611fde565b91505061091a565b5060008267ffffffffffffffff8111156109ca57634e487b7160e01b600052604160045260246000fd5b604051908082528060200260200182016040528015610a0357816020015b6109f0611765565b8152602001906001900390816109e85790505b50905060005b848110156108dd573360086000610a21846001611f70565b81526020810191909152604001600020600401546001600160a01b0316148015610a6a57508660086000610a56846001611f70565b815260200190815260200160002060030154145b15610b4c576000600881610a7f846001611f70565b8152602080820192909252604090810160009081205480825260088452908290208251610100810184528154815260018201546001600160a01b039081169582019590955260028201549381019390935260038101546060840152600481015484166080840152600581015490931660a0830152600683015460c0830152600783015460ff16151560e08301528551909350859087908110610b3157634e487b7160e01b600052603260045260246000fd5b6020908102919091010152610b47600186611f70565b945050505b80610b5681611fde565b915050610a09565b60026000541415610b815760405162461bcd60e51b81526004016102e190611e3b565b6002600090815560405163536b89ad60e11b81526001600160a01b0386169063a6d7135a90610bb4908690600401611f0c565b60006040518083038186803b158015610bcc57600080fd5b505afa158015610be0573d6000803e3d6000fd5b505050506040513d6000823e601f3d908101601f19168201604052610c089190810190611a14565b6060015160008581526009602052604081205491925090610c295782610cae565b60405163536b89ad60e11b81526001600160a01b0387169063a6d7135a90610c55908790600401611f0c565b60006040518083038186803b158015610c6d57600080fd5b505afa158015610c81573d6000803e3d6000fd5b505050506040513d6000823e601f3d908101601f19168201604052610ca99190810190611a14565b60a001515b6000858152600b6020526040902054909150821015610cdf5760405162461bcd60e51b81526004016102e190611d54565b60648111610cff5760405162461bcd60e51b81526004016102e190611c8a565b600354600754610d1c9188916001600160a01b0390911690610ff2565b610d26600161175c565b6000610d326001611758565b60408051610100810182528281526001600160a01b038a16602082015290810188905260608101879052336080820152600060a082015290915060c08101610d7e84633b9aca00611fa8565b81526000602091820181905283815260088252604080822084518155848401516001820180546001600160a01b03199081166001600160a01b03938416179091558684015160028401556060870151600384015560808701516004808501805484169285169290921790915560a08801516005850180549093169084161790915560c0870151600684015560e0909601516007909201805460ff1916921515929092179091558a8352600990935290819020849055516323b872dd60e01b8152908916916323b872dd91610e5891339130918c9101611b31565b600060405180830381600087803b158015610e7257600080fd5b505af1158015610e86573d6000803e3d6000fd5b5050604051631c7a01a760e21b81526001600160a01b038a1692506371e8069c9150610eb6908990600401611f0c565b600060405180830381600087803b158015610ed057600080fd5b505af1158015610ee4573d6000803e3d6000fd5b5050505085876001600160a01b0316827f79f8c05bb09c0956360a67fcd99d7cd58b143c2e5965443ccf2238950961eac58833600088633b9aca00610f299190611fa8565b6000604051610f3c959493929190611f15565b60405180910390a46000858152600b60205260408120805460019290610f63908490611f70565b9091555050600160005550505050505050565b6000610f826001611758565b905090565b6003546001600160a01b03163314610fb15760405162461bcd60e51b81526004016102e190611dbe565b60026000541415610fd45760405162461bcd60e51b81526004016102e190611e3b565b6002600055610fe781633b9aca00611fa8565b600755506001600055565b6000836001600160a01b031663280aada76040518163ffffffff1660e01b815260040160206040518083038186803b15801561102d57600080fd5b505afa158015611041573d6000803e3d6000fd5b505050506040513d601f19601f82011682018060405250810190611065919061184c565b604051636eb1769f60e11b815290915081906000906001600160a01b0383169063dd62ed3e9061109b9033903090600401611b17565b60206040518083038186803b1580156110b357600080fd5b505afa1580156110c7573d6000803e3d6000fd5b505050506040513d601f19601f820116820180604052508101906110eb9190611ae5565b90508381101561110d5760405162461bcd60e51b81526004016102e190611ec5565b6040516370a0823160e01b815284906001600160a01b038416906370a082319061113b903390600401611b03565b60206040518083038186803b15801561115357600080fd5b505afa158015611167573d6000803e3d6000fd5b505050506040513d601f19601f8201168201806040525081019061118b9190611ae5565b10156111a95760405162461bcd60e51b81526004016102e190611deb565b6040516323b872dd60e01b81526001600160a01b038316906323b872dd906111d990339089908990600401611b31565b602060405180830381600087803b1580156111f357600080fd5b505af1158015611207573d6000803e3d6000fd5b505050506040513d601f19601f8201168201806040525081019061122b91906119f4565b50505050505050565b6003546001600160a01b0316331461125e5760405162461bcd60e51b81526004016102e190611dbe565b600260005414156112815760405162461bcd60e51b81526004016102e190611e3b565b600260009081555b815181101561141d57600560008383815181106112b657634e487b7160e01b600052603260045260246000fd5b6020908102919091018101516001600160a01b031682528101919091526040016000205460ff16156112e75761140b565b60016005600084848151811061130d57634e487b7160e01b600052603260045260246000fd5b60200260200101516001600160a01b03166001600160a01b0316815260200190815260200160002060006101000a81548160ff021916908315150217905550600482828151811061136e57634e487b7160e01b600052603260045260246000fd5b60209081029190910181015182546001810184556000938452919092200180546001600160a01b0319166001600160a01b0390921691909117905581517fbf309892cce19064e6d63ba3339f893b199c8cb5041fc6731702cb18e805d291908390839081106113ed57634e487b7160e01b600052603260045260246000fd5b60200260200101516040516114029190611b03565b60405180910390a15b8061141581611fde565b915050611289565b50506001600055565b600081815260096020526040812054819015611440575060015b92915050565b600260005414156114695760405162461bcd60e51b81526004016102e190611e3b565b6002600081815582815260086020526040808220600681015460038201549190940154915163536b89ad60e11b81529092906001600160a01b0387169063a6d7135a906114ba908690600401611f0c565b60006040518083038186803b1580156114d257600080fd5b505afa1580156114e6573d6000803e3d6000fd5b505050506040513d6000823e601f3d908101601f1916820160405261150e9190810190611a14565b60800151905061151e33846116f9565b61153a5760405162461bcd60e51b81526004016102e190611c40565b336000908152600a602090815260408083208684529091529020548110156115745760405162461bcd60e51b81526004016102e190611e72565b60008581526008602052604090206004015461159e9087906001600160a01b031661021f886116cd565b6040516323b872dd60e01b81526001600160a01b038716906323b872dd906115ce90309033908790600401611b31565b600060405180830381600087803b1580156115e857600080fd5b505af11580156115fc573d6000803e3d6000fd5b50505060008681526008602090815260408083206005810180546001600160a01b031916339081179091556007909101805460ff19166001908117909155908452600a835281842088855290925282208054919350919061165e908490611f70565b90915550506000838152600b60205260409020541561169c576000838152600b60205260408120805460019290611696908490611fc7565b90915550505b6116a6600261175c565b5050600160005550505050565b6000908152600b602052604090205490565b600654151590565b6000818152600860205260408120600601546116e88361031f565b6116f29082611fc7565b9392505050565b6000600654821461170c57506001611440565b50506001600160a01b031660009081526005602052604090205460ff1690565b600655565b8054806117505760405162461bcd60e51b81526004016102e190611c09565b600019019055565b5490565b80546001019055565b6040518061010001604052806000815260200160006001600160a01b03168152602001600081526020016000815260200160006001600160a01b0316815260200160006001600160a01b03168152602001600081526020016000151581525090565b600082601f8301126117d7578081fd5b815167ffffffffffffffff8111156117f1576117f161200f565b6020611805601f8301601f19168201611f46565b8281528582848701011115611818578384fd5b835b8381101561183557858101830151828201840152820161181a565b838111156108dd5750918201019190915292915050565b60006020828403121561185d578081fd5b81516116f281612025565b60008060006060848603121561187c578182fd5b833561188781612025565b9250602084013561189781612025565b929592945050506040919091013590565b600080604083850312156118ba578182fd5b82356118c581612025565b946020939093013593505050565b6000806000606084860312156118e7578283fd5b83356118f281612025565b95602085013595506040909401359392505050565b6000806000806080858703121561191c578081fd5b843561192781612025565b966020860135965060408601359560600135945092505050565b60006020808385031215611953578182fd5b823567ffffffffffffffff8082111561196a578384fd5b818501915085601f83011261197d578384fd5b81358181111561198f5761198f61200f565b838102915061199f848301611f46565b8181528481019084860184860187018a10156119b9578788fd5b8795505b838610156119e757803594506119d285612025565b848352600195909501949186019186016119bd565b5098975050505050505050565b600060208284031215611a05578081fd5b815180151581146116f2578182fd5b600060208284031215611a25578081fd5b815167ffffffffffffffff80821115611a3c578283fd5b9083019060c08286031215611a4f578283fd5b611a5960c0611f46565b82518152602083015182811115611a6e578485fd5b611a7a878286016117c7565b602083015250604083015182811115611a91578485fd5b611a9d878286016117c7565b604083015250606083015160608201526080830151608082015260a083015160a082015280935050505092915050565b600060208284031215611ade578081fd5b5035919050565b600060208284031215611af6578081fd5b5051919050565b15159052565b6001600160a01b0391909116815260200190565b6001600160a01b0392831681529116602082015260400190565b6001600160a01b039384168152919092166020820152604081019190915260600190565b602080825282518282018190526000919060409081850190868401855b82811015611bf157815180518552868101516001600160a01b039081168887015286820151878701526060808301519087015260808083015182169087015260a0808301519091169086015260c0808201519086015260e09081015190611bdb81870183611afd565b5050610100939093019290850190600101611b72565b5091979650505050505050565b901515815260200190565b6020808252601b908201527f436f756e7465723a2064656372656d656e74206f766572666c6f770000000000604082015260600190565b6020808252602a908201527f73656e646572206973206e6f7420616c6c6f776564207769746820746869732060408201526931b7b63632b1ba34b7b760b11b606082015260800190565b6020808252601f908201527f5072696365206d757374206265206174206c65617374203130302041444d4300604082015260600190565b60208082526026908201527f7072696365206d7573742062652073657420626967676572207468616e203130604082015265302041444d4360d01b606082015260800190565b6020808252602d908201527f75706461746564207072696365206d757374206265206e6f742073616d65207760408201526c697468206f6c6420707269636560981b606082015260800190565b60208082526044908201527f546865206d696e74696e6720636f756e74206f766572666c6f777320746f746160408201527f6c20636f756e7420696e207468652063757272656e7420636f6c6c656374696f6060820152631b881a5960e21b608082015260a00190565b602080825260139082015272556e617574686f72697365642041636365737360681b604082015260600190565b60208082526030908201527f62616c616e636520697320746f6f20736d616c6c2c20796f752063616e27742060408201526f3830bc903337b91036b4b73a34b7339760811b606082015260800190565b6020808252601f908201527f5265656e7472616e637947756172643a207265656e7472616e742063616c6c00604082015260600190565b60208082526033908201527f6974656d20636f756e74206f776e6564206279206f776e6572206973206f76656040820152721c999b1bddc81b1a5b5a5d19590818dbdd5b9d606a1b606082015260800190565b60208082526027908201527f636f73742069732074686520736d616c6c6572207468616e20616c6c6f77656460408201526608185b5bdd5b9d60ca1b606082015260800190565b90815260200190565b9485526001600160a01b03938416602086015291909216604084015260608301919091521515608082015260a00190565b60405181810167ffffffffffffffff81118282101715611f6857611f6861200f565b604052919050565b60008219821115611f8357611f83611ff9565b500190565b600082611fa357634e487b7160e01b81526012600452602481fd5b500490565b6000816000190483118215151615611fc257611fc2611ff9565b500290565b600082821015611fd957611fd9611ff9565b500390565b6000600019821415611ff257611ff2611ff9565b5060010190565b634e487b7160e01b600052601160045260246000fd5b634e487b7160e01b600052604160045260246000fd5b6001600160a01b038116811461203a57600080fd5b5056fea26469706673582212209e56dac4d26140485bf740449559d78b00ba31c59fa864526fd753a8bd32f8e064736f6c63430008000033",
  "linkReferences": {},
  "deployedLinkReferences": {}
}