{
  "_format": "hh-sol-artifact-1",
  "contractName": "Master",
  "sourceName": "contracts/Master.sol",
  "abi": [
    {
      "inputs": [
        {
          "internalType": "address",
          "name": "addrPayCoin",
          "type": "address"
        }
      ],
      "stateMutability": "nonpayable",
      "type": "constructor"
    },
    {
      "anonymous": false,
      "inputs": [
        {
          "indexed": true,
          "internalType": "address",
          "name": "owner",
          "type": "address"
        },
        {
          "indexed": true,
          "internalType": "address",
          "name": "approved",
          "type": "address"
        },
        {
          "indexed": true,
          "internalType": "uint256",
          "name": "tokenId",
          "type": "uint256"
        }
      ],
      "name": "Approval",
      "type": "event"
    },
    {
      "anonymous": false,
      "inputs": [
        {
          "indexed": true,
          "internalType": "address",
          "name": "owner",
          "type": "address"
        },
        {
          "indexed": true,
          "internalType": "address",
          "name": "operator",
          "type": "address"
        },
        {
          "indexed": false,
          "internalType": "bool",
          "name": "approved",
          "type": "bool"
        }
      ],
      "name": "ApprovalForAll",
      "type": "event"
    },
    {
      "anonymous": false,
      "inputs": [
        {
          "indexed": true,
          "internalType": "address",
          "name": "from",
          "type": "address"
        },
        {
          "indexed": true,
          "internalType": "address",
          "name": "to",
          "type": "address"
        },
        {
          "indexed": true,
          "internalType": "uint256",
          "name": "tokenId",
          "type": "uint256"
        }
      ],
      "name": "Transfer",
      "type": "event"
    },
    {
      "inputs": [
        {
          "internalType": "address",
          "name": "to",
          "type": "address"
        },
        {
          "internalType": "uint256",
          "name": "tokenId",
          "type": "uint256"
        }
      ],
      "name": "approve",
      "outputs": [],
      "stateMutability": "nonpayable",
      "type": "function"
    },
    {
      "inputs": [
        {
          "internalType": "address",
          "name": "owner",
          "type": "address"
        }
      ],
      "name": "balanceOf",
      "outputs": [
        {
          "internalType": "uint256",
          "name": "",
          "type": "uint256"
        }
      ],
      "stateMutability": "view",
      "type": "function"
    },
    {
      "inputs": [],
      "name": "burnToken",
      "outputs": [],
      "stateMutability": "nonpayable",
      "type": "function"
    },
    {
      "inputs": [
        {
          "internalType": "uint256",
          "name": "tokenId",
          "type": "uint256"
        }
      ],
      "name": "getApproved",
      "outputs": [
        {
          "internalType": "address",
          "name": "",
          "type": "address"
        }
      ],
      "stateMutability": "view",
      "type": "function"
    },
    {
      "inputs": [],
      "name": "getCurrentTokenId",
      "outputs": [
        {
          "internalType": "uint256",
          "name": "",
          "type": "uint256"
        }
      ],
      "stateMutability": "view",
      "type": "function"
    },
    {
      "inputs": [],
      "name": "getMintingPrice",
      "outputs": [
        {
          "internalType": "uint256",
          "name": "",
          "type": "uint256"
        }
      ],
      "stateMutability": "view",
      "type": "function"
    },
    {
      "inputs": [],
      "name": "getPayableCoin",
      "outputs": [
        {
          "internalType": "address",
          "name": "",
          "type": "address"
        }
      ],
      "stateMutability": "view",
      "type": "function"
    },
    {
      "inputs": [
        {
          "internalType": "address",
          "name": "_account",
          "type": "address"
        }
      ],
      "name": "getTokens",
      "outputs": [
        {
          "internalType": "uint256[]",
          "name": "",
          "type": "uint256[]"
        }
      ],
      "stateMutability": "view",
      "type": "function"
    },
    {
      "inputs": [
        {
          "internalType": "uint256",
          "name": "tokenId",
          "type": "uint256"
        }
      ],
      "name": "getURI",
      "outputs": [
        {
          "internalType": "string",
          "name": "",
          "type": "string"
        }
      ],
      "stateMutability": "view",
      "type": "function"
    },
    {
      "inputs": [
        {
          "internalType": "address",
          "name": "owner",
          "type": "address"
        },
        {
          "internalType": "address",
          "name": "operator",
          "type": "address"
        }
      ],
      "name": "isApprovedForAll",
      "outputs": [
        {
          "internalType": "bool",
          "name": "",
          "type": "bool"
        }
      ],
      "stateMutability": "view",
      "type": "function"
    },
    {
      "inputs": [],
      "name": "mintToken",
      "outputs": [
        {
          "internalType": "uint256",
          "name": "",
          "type": "uint256"
        }
      ],
      "stateMutability": "nonpayable",
      "type": "function"
    },
    {
      "inputs": [],
      "name": "name",
      "outputs": [
        {
          "internalType": "string",
          "name": "",
          "type": "string"
        }
      ],
      "stateMutability": "view",
      "type": "function"
    },
    {
      "inputs": [
        {
          "internalType": "uint256",
          "name": "tokenId",
          "type": "uint256"
        }
      ],
      "name": "ownerOf",
      "outputs": [
        {
          "internalType": "address",
          "name": "",
          "type": "address"
        }
      ],
      "stateMutability": "view",
      "type": "function"
    },
    {
      "inputs": [
        {
          "internalType": "uint256",
          "name": "costs",
          "type": "uint256"
        }
      ],
      "name": "payWithCustomCoin",
      "outputs": [],
      "stateMutability": "nonpayable",
      "type": "function"
    },
    {
      "inputs": [],
      "name": "pop",
      "outputs": [],
      "stateMutability": "nonpayable",
      "type": "function"
    },
    {
      "inputs": [
        {
          "internalType": "address",
          "name": "from",
          "type": "address"
        },
        {
          "internalType": "address",
          "name": "to",
          "type": "address"
        },
        {
          "internalType": "uint256",
          "name": "tokenId",
          "type": "uint256"
        }
      ],
      "name": "safeTransferFrom",
      "outputs": [],
      "stateMutability": "nonpayable",
      "type": "function"
    },
    {
      "inputs": [
        {
          "internalType": "address",
          "name": "from",
          "type": "address"
        },
        {
          "internalType": "address",
          "name": "to",
          "type": "address"
        },
        {
          "internalType": "uint256",
          "name": "tokenId",
          "type": "uint256"
        },
        {
          "internalType": "bytes",
          "name": "_data",
          "type": "bytes"
        }
      ],
      "name": "safeTransferFrom",
      "outputs": [],
      "stateMutability": "nonpayable",
      "type": "function"
    },
    {
      "inputs": [
        {
          "internalType": "address",
          "name": "operator",
          "type": "address"
        },
        {
          "internalType": "bool",
          "name": "approved",
          "type": "bool"
        }
      ],
      "name": "setApprovalForAll",
      "outputs": [],
      "stateMutability": "nonpayable",
      "type": "function"
    },
    {
      "inputs": [
        {
          "internalType": "bytes4",
          "name": "interfaceId",
          "type": "bytes4"
        }
      ],
      "name": "supportsInterface",
      "outputs": [
        {
          "internalType": "bool",
          "name": "",
          "type": "bool"
        }
      ],
      "stateMutability": "view",
      "type": "function"
    },
    {
      "inputs": [],
      "name": "symbol",
      "outputs": [
        {
          "internalType": "string",
          "name": "",
          "type": "string"
        }
      ],
      "stateMutability": "view",
      "type": "function"
    },
    {
      "inputs": [
        {
          "internalType": "uint256",
          "name": "tokenId",
          "type": "uint256"
        }
      ],
      "name": "tokenURI",
      "outputs": [
        {
          "internalType": "string",
          "name": "",
          "type": "string"
        }
      ],
      "stateMutability": "view",
      "type": "function"
    },
    {
      "inputs": [
        {
          "internalType": "address",
          "name": "from",
          "type": "address"
        },
        {
          "internalType": "address",
          "name": "to",
          "type": "address"
        },
        {
          "internalType": "uint256",
          "name": "tokenId",
          "type": "uint256"
        }
      ],
      "name": "transferFrom",
      "outputs": [],
      "stateMutability": "nonpayable",
      "type": "function"
    }
  ],
  "bytecode": "0x6509184e72a00060085561271060095561010060405260506080818152906200229360a03980516200003a91600d916020909101906200010f565b503480156200004857600080fd5b50604051620022e3380380620022e38339810160408190526200006b91620001b5565b6040518060400160405280600681526020016526b0b9ba32b960d11b8152506040518060400160405280600681526020016526a0a9aa22a960d11b8152508160009080519060200190620000c19291906200010f565b508051620000d79060019060208401906200010f565b5050600b8054336001600160a01b031991821617909155600a80549091166001600160a01b0393909316929092179091555062000222565b8280546200011d90620001e5565b90600052602060002090601f0160209004810192826200014157600085556200018c565b82601f106200015c57805160ff19168380011785556200018c565b828001600101855582156200018c579182015b828111156200018c5782518255916020019190600101906200016f565b506200019a9291506200019e565b5090565b5b808211156200019a57600081556001016200019f565b600060208284031215620001c7578081fd5b81516001600160a01b0381168114620001de578182fd5b9392505050565b600281046001821680620001fa57607f821691505b602082108114156200021c57634e487b7160e01b600052602260045260246000fd5b50919050565b61206180620002326000396000f3fe608060405234801561001057600080fd5b50600436106101425760003560e01c80636352211e116100b8578063a22cb4651161007c578063a22cb46514610281578063a4ece52c14610294578063b88d4fde1461029c578063c87b56dd146102af578063e985e9c5146102c2578063faa0a264146102d557610142565b80636352211e1461023857806369c30eb61461024b57806370a082311461025e57806377d247621461027157806395d89b411461027957610142565b80632004ffd91161010a5780632004ffd9146101cd57806323b872dd146101e2578063280aada7146101f557806342842e0e146101fd578063450efe2114610210578063561892361461023057610142565b806301ffc9a71461014757806306fdde0314610170578063081812fc14610185578063095ea7b3146101a55780631aa347dc146101ba575b600080fd5b61015a61015536600461178f565b6102dd565b6040516101679190611925565b60405180910390f35b610178610325565b6040516101679190611930565b6101986101933660046117c7565b6103b7565b6040516101679190611852565b6101b86101b336600461174a565b610403565b005b6101786101c83660046117c7565b61049b565b6101d56104a6565b6040516101679190611ee3565b6101b86101f036600461160d565b6105bb565b6101986105f3565b6101b861020b36600461160d565b610602565b61022361021e3660046115c1565b61061d565b60405161016791906118e1565b6101d5610689565b6101986102463660046117c7565b610695565b6101b86102593660046117c7565b6106ca565b6101d561026c3660046115c1565b61089b565b6101d56108df565b6101786108e5565b6101b861028f366004611714565b6108f4565b6101b86109c2565b6101b86102aa366004611648565b610b66565b6101786102bd3660046117c7565b610b9f565b61015a6102d03660046115db565b610cc0565b6101b8610cee565b60006001600160e01b031982166380ac58cd60e01b148061030e57506001600160e01b03198216635b5e139f60e01b145b8061031d575061031d82610d2f565b90505b919050565b60606000805461033490611f5b565b80601f016020809104026020016040519081016040528092919081815260200182805461036090611f5b565b80156103ad5780601f10610382576101008083540402835291602001916103ad565b820191906000526020600020905b81548152906001019060200180831161039057829003601f168201915b5050505050905090565b60006103c282610d48565b6103e75760405162461bcd60e51b81526004016103de90611c81565b60405180910390fd5b506000908152600460205260409020546001600160a01b031690565b600061040e82610695565b9050806001600160a01b0316836001600160a01b031614156104425760405162461bcd60e51b81526004016103de90611d65565b806001600160a01b0316610454610d65565b6001600160a01b031614806104705750610470816102d0610d65565b61048c5760405162461bcd60e51b81526004016103de90611abd565b6104968383610d69565b505050565b606061031d82610b9f565b60006009546104b56007610dd7565b106104d25760405162461bcd60e51b81526004016103de90611da6565b6104dc6007610ddb565b60006104e86007610dd7565b90506104f43382610de4565b61058881600d805461050590611f5b565b80601f016020809104026020016040519081016040528092919081815260200182805461053190611f5b565b801561057e5780601f106105535761010080835404028352916020019161057e565b820191906000526020600020905b81548152906001019060200180831161056157829003601f168201915b5050505050610ec3565b336000908152600c60209081526040822080546001810182559083529120018190556008546105b6906106ca565b905090565b6105cc6105c6610d65565b82610f07565b6105e85760405162461bcd60e51b81526004016103de90611dfb565b610496838383610f84565b600a546001600160a01b031690565b61049683838360405180602001604052806000815250610b66565b6001600160a01b0381166000908152600c602090815260409182902080548351818402810184019094528084526060939283018282801561067d57602002820191906000526020600020905b815481526020019060010190808311610669575b50505050509050919050565b60006105b66007610dd7565b6000818152600260205260408120546001600160a01b03168061031d5760405162461bcd60e51b81526004016103de90611b64565b600a54604051636eb1769f60e11b81526001600160a01b0390911690600090829063dd62ed3e906107019033903090600401611866565b60206040518083038186803b15801561071957600080fd5b505afa15801561072d573d6000803e3d6000fd5b505050506040513d601f19601f8201168201806040525081019061075191906117df565b9050828110156107735760405162461bcd60e51b81526004016103de90611e9c565b6040516370a0823160e01b815283906001600160a01b038416906370a08231906107a1903390600401611852565b60206040518083038186803b1580156107b957600080fd5b505afa1580156107cd573d6000803e3d6000fd5b505050506040513d601f19601f820116820180604052508101906107f191906117df565b101561080f5760405162461bcd60e51b81526004016103de90611e4c565b600b546040516323b872dd60e01b81526001600160a01b03808516926323b872dd9261084392339216908890600401611880565b602060405180830381600087803b15801561085d57600080fd5b505af1158015610871573d6000803e3d6000fd5b505050506040513d601f19601f820116820180604052508101906108959190611773565b50505050565b60006001600160a01b0382166108c35760405162461bcd60e51b81526004016103de90611b1a565b506001600160a01b031660009081526003602052604090205490565b60085490565b60606001805461033490611f5b565b6108fc610d65565b6001600160a01b0316826001600160a01b0316141561092d5760405162461bcd60e51b81526004016103de90611a3a565b806005600061093a610d65565b6001600160a01b03908116825260208083019390935260409182016000908120918716808252919093529120805460ff19169215159290921790915561097e610d65565b6001600160a01b03167f17307eab39ab6107e8899845ad3d59bd9653f200f220920489ca2b5937696c31836040516109b69190611925565b60405180910390a35050565b336000908152600c6020908152604080832080548251818502810185019093528083529192909190830182828015610a1957602002820191906000526020600020905b815481526020019060010190808311610a05575b50505050509050600081511115610a66578060018251610a399190611f18565b81518110610a5757634e487b7160e01b600052603260045260246000fd5b6020026020010151600e819055505b600060018251610a769190611f18565b67ffffffffffffffff811115610a9c57634e487b7160e01b600052604160045260246000fd5b604051908082528060200260200182016040528015610ac5578160200160208202803683370190505b50905060005b60018351610ad99190611f18565b811015610b4557828181518110610b0057634e487b7160e01b600052603260045260246000fd5b6020026020010151828281518110610b2857634e487b7160e01b600052603260045260246000fd5b602090810291909101015280610b3d81611f96565b915050610acb565b50336000908152600c6020908152604090912082516104969284019061149f565b610b77610b71610d65565b83610f07565b610b935760405162461bcd60e51b81526004016103de90611dfb565b610895848484846110b1565b6060610baa82610d48565b610bc65760405162461bcd60e51b81526004016103de90611c30565b60008281526006602052604081208054610bdf90611f5b565b80601f0160208091040260200160405190810160405280929190818152602001828054610c0b90611f5b565b8015610c585780601f10610c2d57610100808354040283529160200191610c58565b820191906000526020600020905b815481529060010190602001808311610c3b57829003601f168201915b505050505090506000610c696110e4565b9050805160001415610c7d57509050610320565b815115610caf578082604051602001610c97929190611823565b60405160208183030381529060405292505050610320565b610cb8846110f6565b949350505050565b6001600160a01b03918216600090815260056020908152604080832093909416825291909152205460ff1690565b336000908152600c6020526040902054610d1a5760405162461bcd60e51b81526004016103de90611943565b610d226109c2565b610d2d600e54611179565b565b6001600160e01b031981166301ffc9a760e01b14919050565b6000908152600260205260409020546001600160a01b0316151590565b3390565b600081815260046020526040902080546001600160a01b0319166001600160a01b0384169081179091558190610d9e82610695565b6001600160a01b03167f8c5be1e5ebec7d5bd14f71427d1e84f3dd0314c0f7b2291e5b200ac8c7c3b92560405160405180910390a45050565b5490565b80546001019055565b6001600160a01b038216610e0a5760405162461bcd60e51b81526004016103de90611bfb565b610e1381610d48565b15610e305760405162461bcd60e51b81526004016103de906119bf565b610e3c60008383610496565b6001600160a01b0382166000908152600360205260408120805460019290610e65908490611eec565b909155505060008181526002602052604080822080546001600160a01b0319166001600160a01b03861690811790915590518392907fddf252ad1be2c89b69c2b068fc378daa952ba7f163c4a11628f55a4df523b3ef908290a45050565b610ecc82610d48565b610ee85760405162461bcd60e51b81526004016103de90611bad565b60008281526006602090815260409091208251610496928401906114ea565b6000610f1282610d48565b610f2e5760405162461bcd60e51b81526004016103de90611a71565b6000610f3983610695565b9050806001600160a01b0316846001600160a01b03161480610f745750836001600160a01b0316610f69846103b7565b6001600160a01b0316145b80610cb85750610cb88185610cc0565b826001600160a01b0316610f9782610695565b6001600160a01b031614610fbd5760405162461bcd60e51b81526004016103de90611ccd565b6001600160a01b038216610fe35760405162461bcd60e51b81526004016103de906119f6565b610fee838383610496565b610ff9600082610d69565b6001600160a01b0383166000908152600360205260408120805460019290611022908490611f18565b90915550506001600160a01b0382166000908152600360205260408120805460019290611050908490611eec565b909155505060008181526002602052604080822080546001600160a01b0319166001600160a01b0386811691821790925591518493918716917fddf252ad1be2c89b69c2b068fc378daa952ba7f163c4a11628f55a4df523b3ef91a4505050565b6110bc848484610f84565b6110c8848484846111bc565b6108955760405162461bcd60e51b81526004016103de9061196d565b60408051602081019091526000815290565b606061110182610d48565b61111d5760405162461bcd60e51b81526004016103de90611d16565b60006111276110e4565b905060008151116111475760405180602001604052806000815250611172565b80611151846112d7565b604051602001611162929190611823565b6040516020818303038152906040525b9392505050565b611182816113f2565b6000818152600660205260409020805461119b90611f5b565b1590506111b95760008181526006602052604081206111b99161155d565b50565b60006111d0846001600160a01b0316611499565b156112cc57836001600160a01b031663150b7a026111ec610d65565b8786866040518563ffffffff1660e01b815260040161120e94939291906118a4565b602060405180830381600087803b15801561122857600080fd5b505af1925050508015611258575060408051601f3d908101601f19168201909252611255918101906117ab565b60015b6112b2573d808015611286576040519150601f19603f3d011682016040523d82523d6000602084013e61128b565b606091505b5080516112aa5760405162461bcd60e51b81526004016103de9061196d565b805181602001fd5b6001600160e01b031916630a85bd0160e11b149050610cb8565b506001949350505050565b6060816112fc57506040805180820190915260018152600360fc1b6020820152610320565b8160005b8115611326578061131081611f96565b915061131f9050600a83611f04565b9150611300565b60008167ffffffffffffffff81111561134f57634e487b7160e01b600052604160045260246000fd5b6040519080825280601f01601f191660200182016040528015611379576020820181803683370190505b5090505b8415610cb85761138e600183611f18565b915061139b600a86611fb1565b6113a6906030611eec565b60f81b8183815181106113c957634e487b7160e01b600052603260045260246000fd5b60200101906001600160f81b031916908160001a9053506113eb600a86611f04565b945061137d565b60006113fd82610695565b905061140b81600084610496565b611416600083610d69565b6001600160a01b038116600090815260036020526040812080546001929061143f908490611f18565b909155505060008281526002602052604080822080546001600160a01b0319169055518391906001600160a01b038416907fddf252ad1be2c89b69c2b068fc378daa952ba7f163c4a11628f55a4df523b3ef908390a45050565b3b151590565b8280548282559060005260206000209081019282156114da579160200282015b828111156114da5782518255916020019190600101906114bf565b506114e6929150611595565b5090565b8280546114f690611f5b565b90600052602060002090601f01602090048101928261151857600085556114da565b82601f1061153157805160ff19168380011785556114da565b828001600101855582156114da57918201828111156114da5782518255916020019190600101906114bf565b50805461156990611f5b565b6000825580601f1061157b57506111b9565b601f0160209004906000526020600020908101906111b991905b5b808211156114e65760008155600101611596565b80356001600160a01b038116811461032057600080fd5b6000602082840312156115d2578081fd5b611172826115aa565b600080604083850312156115ed578081fd5b6115f6836115aa565b9150611604602084016115aa565b90509250929050565b600080600060608486031215611621578081fd5b61162a846115aa565b9250611638602085016115aa565b9150604084013590509250925092565b6000806000806080858703121561165d578081fd5b611666856115aa565b935060206116758187016115aa565b935060408601359250606086013567ffffffffffffffff80821115611698578384fd5b818801915088601f8301126116ab578384fd5b8135818111156116bd576116bd611ff1565b604051601f8201601f19168101850183811182821017156116e0576116e0611ff1565b60405281815283820185018b10156116f6578586fd5b81858501868301379081019093019390935250939692955090935050565b60008060408385031215611726578182fd5b61172f836115aa565b9150602083013561173f81612007565b809150509250929050565b6000806040838503121561175c578182fd5b611765836115aa565b946020939093013593505050565b600060208284031215611784578081fd5b815161117281612007565b6000602082840312156117a0578081fd5b813561117281612015565b6000602082840312156117bc578081fd5b815161117281612015565b6000602082840312156117d8578081fd5b5035919050565b6000602082840312156117f0578081fd5b5051919050565b6000815180845261180f816020860160208601611f2f565b601f01601f19169290920160200192915050565b60008351611835818460208801611f2f565b835190830190611849818360208801611f2f565b01949350505050565b6001600160a01b0391909116815260200190565b6001600160a01b0392831681529116602082015260400190565b6001600160a01b039384168152919092166020820152604081019190915260600190565b6001600160a01b03858116825284166020820152604081018390526080606082018190526000906118d7908301846117f7565b9695505050505050565b6020808252825182820181905260009190848201906040850190845b81811015611919578351835292840192918401916001016118fd565b50909695505050505050565b901515815260200190565b60006020825261117260208301846117f7565b60208082526010908201526f3130b630b731b29034b9903d32b9379760811b604082015260600190565b60208082526032908201527f4552433732313a207472616e7366657220746f206e6f6e20455243373231526560408201527131b2b4bb32b91034b6b83632b6b2b73a32b960711b606082015260800190565b6020808252601c908201527f4552433732313a20746f6b656e20616c7265616479206d696e74656400000000604082015260600190565b60208082526024908201527f4552433732313a207472616e7366657220746f20746865207a65726f206164646040820152637265737360e01b606082015260800190565b60208082526019908201527f4552433732313a20617070726f766520746f2063616c6c657200000000000000604082015260600190565b6020808252602c908201527f4552433732313a206f70657261746f7220717565727920666f72206e6f6e657860408201526b34b9ba32b73a103a37b5b2b760a11b606082015260800190565b60208082526038908201527f4552433732313a20617070726f76652063616c6c6572206973206e6f74206f7760408201527f6e6572206e6f7220617070726f76656420666f7220616c6c0000000000000000606082015260800190565b6020808252602a908201527f4552433732313a2062616c616e636520717565727920666f7220746865207a65604082015269726f206164647265737360b01b606082015260800190565b60208082526029908201527f4552433732313a206f776e657220717565727920666f72206e6f6e657869737460408201526832b73a103a37b5b2b760b91b606082015260800190565b6020808252602e908201527f45524337323155524953746f726167653a2055524920736574206f66206e6f6e60408201526d32bc34b9ba32b73a103a37b5b2b760911b606082015260800190565b6020808252818101527f4552433732313a206d696e7420746f20746865207a65726f2061646472657373604082015260600190565b60208082526031908201527f45524337323155524953746f726167653a2055524920717565727920666f72206040820152703737b732bc34b9ba32b73a103a37b5b2b760791b606082015260800190565b6020808252602c908201527f4552433732313a20617070726f76656420717565727920666f72206e6f6e657860408201526b34b9ba32b73a103a37b5b2b760a11b606082015260800190565b60208082526029908201527f4552433732313a207472616e73666572206f6620746f6b656e2074686174206960408201526839903737ba1037bbb760b91b606082015260800190565b6020808252602f908201527f4552433732314d657461646174613a2055524920717565727920666f72206e6f60408201526e3732bc34b9ba32b73a103a37b5b2b760891b606082015260800190565b60208082526021908201527f4552433732313a20617070726f76616c20746f2063757272656e74206f776e656040820152603960f91b606082015260800190565b60208082526035908201527f546865206e756d626572206f662074686973204e465420746f6b656e73206f7660408201527432b9333637bbb9903a37ba30b61039bab838363c9760591b606082015260800190565b60208082526031908201527f4552433732313a207472616e736665722063616c6c6572206973206e6f74206f6040820152701ddb995c881b9bdc88185c1c1c9bdd9959607a1b606082015260800190565b60208082526030908201527f62616c616e636520697320746f6f20736d616c6c2c20796f752063616e27742060408201526f3830bc903337b91036b4b73a34b7339760811b606082015260800190565b60208082526027908201527f636f73742069732074686520736d616c6c6572207468616e20616c6c6f77656460408201526608185b5bdd5b9d60ca1b606082015260800190565b90815260200190565b60008219821115611eff57611eff611fc5565b500190565b600082611f1357611f13611fdb565b500490565b600082821015611f2a57611f2a611fc5565b500390565b60005b83811015611f4a578181015183820152602001611f32565b838111156108955750506000910152565b600281046001821680611f6f57607f821691505b60208210811415611f9057634e487b7160e01b600052602260045260246000fd5b50919050565b6000600019821415611faa57611faa611fc5565b5060010190565b600082611fc057611fc0611fdb565b500690565b634e487b7160e01b600052601160045260246000fd5b634e487b7160e01b600052601260045260246000fd5b634e487b7160e01b600052604160045260246000fd5b80151581146111b957600080fd5b6001600160e01b0319811681146111b957600080fdfea26469706673582212200327bf5765f9de1eecc03184687a20618c1fd11249a19b4748f3828a240700b564736f6c6343000800003368747470733a2f2f676174657761792e70696e6174612e636c6f75642f697066732f516d516e66417167777a4355626a397336446a6d31485747767852443841766838344e7535623171627258385147",
  "linkReferences": {},
  "deployedLinkReferences": {}
}